{
    "contractName": "RockPaperScissors",
    "abi": [
        {
            "anonymous": false,
            "inputs": [
                {
                    "indexed": false,
                    "internalType": "bytes32",
                    "name": "gameId",
                    "type": "bytes32"
                }
            ],
            "name": "GameAccepted",
            "type": "event"
        },
        {
            "anonymous": false,
            "inputs": [
                {
                    "indexed": false,
                    "internalType": "bytes32",
                    "name": "gameId",
                    "type": "bytes32"
                }
            ],
            "name": "GameCancelled",
            "type": "event"
        },
        {
            "anonymous": false,
            "inputs": [
                {
                    "indexed": false,
                    "internalType": "bytes32",
                    "name": "gameId",
                    "type": "bytes32"
                },
                {
                    "indexed": true,
                    "internalType": "address",
                    "name": "challenger",
                    "type": "address"
                },
                {
                    "indexed": true,
                    "internalType": "address",
                    "name": "respondent",
                    "type": "address"
                }
            ],
            "name": "GameCreated",
            "type": "event"
        },
        {
            "anonymous": false,
            "inputs": [
                {
                    "indexed": false,
                    "internalType": "bytes32",
                    "name": "gameId",
                    "type": "bytes32"
                },
                {
                    "indexed": false,
                    "internalType": "string",
                    "name": "result",
                    "type": "string"
                }
            ],
            "name": "GameEnded",
            "type": "event"
        },
        {
            "inputs": [
                {
                    "internalType": "bytes32",
                    "name": "_gameId",
                    "type": "bytes32"
                },
                {
                    "internalType": "uint8",
                    "name": "_choice",
                    "type": "uint8"
                }
            ],
            "name": "accept",
            "outputs": [],
            "stateMutability": "payable",
            "type": "function"
        },
        {
            "inputs": [
                {
                    "internalType": "bytes32",
                    "name": "_slatedHash",
                    "type": "bytes32"
                },
                {
                    "internalType": "address",
                    "name": "_respondent",
                    "type": "address"
                },
                {
                    "internalType": "uint256",
                    "name": "_blockduration",
                    "type": "uint256"
                }
            ],
            "name": "challenge",
            "outputs": [],
            "stateMutability": "payable",
            "type": "function"
        },
        {
            "inputs": [
                {
                    "internalType": "bytes32",
                    "name": "_saltedHash",
                    "type": "bytes32"
                },
                {
                    "internalType": "bytes32",
                    "name": "_salt",
                    "type": "bytes32"
                }
            ],
            "name": "decodeHash",
            "outputs": [
                {
                    "internalType": "uint8",
                    "name": "",
                    "type": "uint8"
                },
                {
                    "internalType": "bool",
                    "name": "",
                    "type": "bool"
                }
            ],
            "stateMutability": "view",
            "type": "function"
        },
        {
            "inputs": [
                {
                    "internalType": "bytes32",
                    "name": "_gameId",
                    "type": "bytes32"
                }
            ],
            "name": "getGameData1",
            "outputs": [
                {
                    "internalType": "bytes32",
                    "name": "_saltedHash",
                    "type": "bytes32"
                },
                {
                    "internalType": "address",
                    "name": "_challenger",
                    "type": "address"
                },
                {
                    "internalType": "address",
                    "name": "_respondent",
                    "type": "address"
                },
                {
                    "internalType": "uint256",
                    "name": "_stake",
                    "type": "uint256"
                }
            ],
            "stateMutability": "view",
            "type": "function"
        },
        {
            "inputs": [
                {
                    "internalType": "bytes32",
                    "name": "_gameId",
                    "type": "bytes32"
                }
            ],
            "name": "getGameData2",
            "outputs": [
                {
                    "internalType": "uint256",
                    "name": "_blocknumber",
                    "type": "uint256"
                },
                {
                    "internalType": "uint256",
                    "name": "_blockduration",
                    "type": "uint256"
                },
                {
                    "internalType": "uint8",
                    "name": "_respondentChoice",
                    "type": "uint8"
                },
                {
                    "internalType": "bool",
                    "name": "_hasStarted",
                    "type": "bool"
                },
                {
                    "internalType": "bool",
                    "name": "_isFinished",
                    "type": "bool"
                },
                {
                    "internalType": "bool",
                    "name": "_isGame",
                    "type": "bool"
                }
            ],
            "stateMutability": "view",
            "type": "function"
        },
        {
            "inputs": [
                {
                    "internalType": "uint8",
                    "name": "_choice",
                    "type": "uint8"
                },
                {
                    "internalType": "bytes32",
                    "name": "_salt",
                    "type": "bytes32"
                }
            ],
            "name": "hashMethod",
            "outputs": [
                {
                    "internalType": "bytes32",
                    "name": "",
                    "type": "bytes32"
                }
            ],
            "stateMutability": "pure",
            "type": "function"
        },
        {
            "inputs": [],
            "name": "paper",
            "outputs": [
                {
                    "internalType": "uint8",
                    "name": "",
                    "type": "uint8"
                }
            ],
            "stateMutability": "view",
            "type": "function"
        },
        {
            "inputs": [],
            "name": "rock",
            "outputs": [
                {
                    "internalType": "uint8",
                    "name": "",
                    "type": "uint8"
                }
            ],
            "stateMutability": "view",
            "type": "function"
        },
        {
            "inputs": [],
            "name": "scissors",
            "outputs": [
                {
                    "internalType": "uint8",
                    "name": "",
                    "type": "uint8"
                }
            ],
            "stateMutability": "view",
            "type": "function"
        },
        {
            "inputs": [
                {
                    "internalType": "bytes32",
                    "name": "_gameId",
                    "type": "bytes32"
                },
                {
                    "internalType": "bytes32",
                    "name": "_salt",
                    "type": "bytes32"
                }
            ],
            "name": "settleGame",
            "outputs": [],
            "stateMutability": "nonpayable",
            "type": "function"
        },
        {
            "inputs": [
                {
                    "internalType": "bytes32",
                    "name": "_gameId",
                    "type": "bytes32"
                }
            ],
            "name": "withdrawAsChallenger",
            "outputs": [],
            "stateMutability": "nonpayable",
            "type": "function"
        },
        {
            "inputs": [
                {
                    "internalType": "bytes32",
                    "name": "_gameId",
                    "type": "bytes32"
                }
            ],
            "name": "withdrawAsRespondent",
            "outputs": [],
            "stateMutability": "nonpayable",
            "type": "function"
        }
    ],
    "bytecode": "60806040526000805462ffffff19166202010017905534801561002157600080fd5b506114da806100316000396000f3fe6080604052600436106100a75760003560e01c80636da6bad0116100645780636da6bad0146101845780638e1a41261461019e5780639aabe58114610237578063c37ca54e14610257578063da310ba1146102d9578063f8c587ac1461030757600080fd5b80631b856f4c146100ac5780631f2a3e06146100ea57806329ce98601461011c57806343e7b1491461013e5780635f80b787146101515780636adf65dc14610171575b600080fd5b3480156100b857600080fd5b506100cc6100c7366004611293565b610326565b6040805160ff90931683529015156020830152015b60405180910390f35b3480156100f657600080fd5b5060005461010a9062010000900460ff1681565b60405160ff90911681526020016100e1565b34801561012857600080fd5b5061013c610137366004611236565b6103eb565b005b61013c61014c36600461124f565b61063d565b34801561015d57600080fd5b5061013c61016c366004611293565b610931565b61013c61017f3660046112b5565b610e2f565b34801561019057600080fd5b5060005461010a9060ff1681565b3480156101aa57600080fd5b506101fe6101b9366004611236565b600090815260016020526040902060048101546005820154600690920154909260ff808316926101008104821692620100008204831692630100000090920490911690565b60408051968752602087019590955260ff90931693850193909352151560608401529015156080830152151560a082015260c0016100e1565b34801561024357600080fd5b5061013c610252366004611236565b61104f565b34801561026357600080fd5b506102a9610272366004611236565b6000908152600160208190526040909120805491810154600282015460039092015492936001600160a01b03918216939190921691565b6040516100e194939291909384526001600160a01b03928316602085015291166040830152606082015260800190565b3480156102e557600080fd5b506102f96102f43660046112e1565b6111e9565b6040519081526020016100e1565b34801561031357600080fd5b5060005461010a90610100900460ff1681565b600080548190819061033b9060ff16856111e9565b90506000610358600060019054906101000a900460ff16866111e9565b90506000610375600060029054906101000a900460ff16876111e9565b90508287141561039457505060005460ff169250600191506103e49050565b818714156103b6575050600054610100900460ff169250600191506103e49050565b808714156103d957505060005462010000900460ff169250600191506103e49050565b600080945094505050505b9250929050565b6000818152600160208190526040909120600601548291630100000090910460ff161515146104355760405162461bcd60e51b815260040161042c9061142f565b60405180910390fd5b60008281526001602052604081206006015483919062010000900460ff16156104705760405162461bcd60e51b815260040161042c90611402565b60008481526001602052604090206002015484906001600160a01b031633146104ab5760405162461bcd60e51b815260040161042c906113af565b600085815260016020819052604090912060060154610100900460ff161515146105175760405162461bcd60e51b815260206004820152601e60248201527f596f7520686176656e277420616363657074656420746861742067616d650000604482015260640161042c565b6000858152600160205260409020600581015460049091015461053a9043611477565b10156105935760405162461bcd60e51b815260206004820152602260248201527f4368616c6c616e676572207374696c6c206d61792070726f766964652070726f60448201526137b360f11b606482015260840161042c565b600085815260016020526040902060068101805462ff00001916620100001790556002808201546003909201546001600160a01b03909216916108fc916105da9190611458565b6040518115909202916000818181858888f19350505050158015610602573d6000803e3d6000fd5b506040518581527f730d9f4e127b4c1c5d999194f79025fe149736fbb95b0755b18ed20ddd01b4e09060200160405180910390a15050505050565b3461068a5760405162461bcd60e51b815260206004820181905260248201527f4d7573742070726f76696465207374616b6520666f72206368616c6c656e6765604482015260640161042c565b336001600160a01b03831614156106e35760405162461bcd60e51b815260206004820152601860248201527f43616e2774206368616c6c656e676520796f757273656c660000000000000000604482015260640161042c565b6001600160a01b0382166107395760405162461bcd60e51b815260206004820181905260248201527f526573706f6e64656e742063616e2774206265206275726e2061646472657373604482015260640161042c565b806107865760405162461bcd60e51b815260206004820152601f60248201527f43616e277420686176652067616d6520776974682030206475726174696f6e00604482015260640161042c565b60408051610140810182528481523360208083018290526001600160a01b0386168385018190523460608086018290526000608080880182905260a08089018b9052825460ff1660c0808b019190915260e08a018490526101008a0184905260016101208b01528a519788019890985298860194909452908401919091529082018190529381018590529192910160408051808303601f1901815282825280516020918201206000818152600180845290849020875181558784015191810180546001600160a01b03199081166001600160a01b03948516179091559488015160028201805490961690831617909455606087015160038501556080870151600485015560a0870151600585015560c08701516006909401805460e0890151610100808b01516101208c015160ff90991661ffff1990941693909317911515021763ffff00001916620100009115159190910263ff0000001916176301000000951515959095029490941790935580845293509086169133917f34e2d83306a98aff5e4796375e70ce8ec62d7ef614bb17d77397761d06b93e56910160405180910390a35050505050565b6000828152600160208190526040909120600601548391630100000090910460ff161515146109725760405162461bcd60e51b815260040161042c9061142f565b60008381526001602052604081206006015484919062010000900460ff16156109ad5760405162461bcd60e51b815260040161042c90611402565b6000858152600160208190526040909120015485906001600160a01b031633146109e95760405162461bcd60e51b815260040161042c90611368565b600086815260016020819052604090912060060154610100900460ff16151514610a555760405162461bcd60e51b815260206004820152601e60248201527f526573706f6e64656e74206861736e2774206163636570746564207965740000604482015260640161042c565b600086815260016020818152604080842060068101548251808401909352600e83526d21b430b63632b733b2b9103bb7b760911b838501528b865293909252905460ff9092169291829190610aaa908a610326565b9093509150600182151514610b29576040805162461bcd60e51b81526020600482015260248101919091527f536f6d657468696e672077656e742077726f6e67206465636f64696e6720796f60448201527f75722073616c74656420686173682c20636865636b20796f757220696e707574606482015260840161042c565b8360ff168360ff161415610bf65760008a815260016020526040808220600281015460039091015491516001600160a01b039091169282156108fc02929190818181858888f19350505050158015610b85573d6000803e3d6000fd5b5060008a81526001602081905260408083209182015460039092015490516001600160a01b039092169281156108fc029290818181858888f19350505050158015610bd4573d6000803e3d6000fd5b50506040805180820190915260048152634472617760e01b6020820152610dc9565b60005460ff8481169116148015610c1a575060005460ff8581166201000090920416145b15610c835760008a8152600160208190526040909120908101546003909101546001600160a01b03909116906108fc90610c55906002611458565b6040518115909202916000818181858888f19350505050158015610c7d573d6000803e3d6000fd5b50610dc9565b60005460ff84811661010090920416148015610ca6575060005460ff8581169116145b15610ce15760008a8152600160208190526040909120908101546003909101546001600160a01b03909116906108fc90610c55906002611458565b60005460ff8481166201000090920416148015610d0a575060005460ff85811661010090920416145b15610d455760008a8152600160208190526040909120908101546003909101546001600160a01b03909116906108fc90610c55906002611458565b60008a81526001602052604090206002808201546003909201546001600160a01b03909216916108fc91610d799190611458565b6040518115909202916000818181858888f19350505050158015610da1573d6000803e3d6000fd5b505060408051808201909152600e81526d3932b9b837b73232b73a103bb7b760911b60208201525b60008a81526001602052604090819020600601805462ff0000191662010000179055517f06962381933c9781842e2452d04a5821726a67c9fe96b977f2272e00165ec5ee90610e1b908c90849061130b565b60405180910390a150505050505050505050565b6000828152600160208190526040909120600601548391630100000090910460ff16151514610e705760405162461bcd60e51b815260040161042c9061142f565b60008381526001602052604081206006015484919062010000900460ff1615610eab5760405162461bcd60e51b815260040161042c90611402565b60008581526001602052604090206002015485906001600160a01b03163314610ee65760405162461bcd60e51b815260040161042c906113af565b600054859060ff808316911614801590610f0d575060005460ff8281166101009092041614155b8015610f27575060005460ff828116620100009092041614155b15610f655760405162461bcd60e51b815260206004820152600e60248201526d496e76616c69642063686f69636560901b604482015260640161042c565b600087815260016020526040902060030154341015610fe15760405162461bcd60e51b815260206004820152603260248201527f4d7573742070726f76696465207374616b6520657175616c206f72206869676860448201527132b9103a3430b71031b430b63632b733b2b960711b606482015260840161042c565b6000878152600160205260409081902060068101805461ffff191660ff8a161761010017905543600490910155517fd5dee84148a1bc6f632dea99c242439c630eeb2b8de3ee9f77841350632b770d9061103e9089815260200190565b60405180910390a150505050505050565b6000818152600160208190526040909120600601548291630100000090910460ff161515146110905760405162461bcd60e51b815260040161042c9061142f565b60008281526001602052604081206006015483919062010000900460ff16156110cb5760405162461bcd60e51b815260040161042c90611402565b6000848152600160208190526040909120015484906001600160a01b031633146111075760405162461bcd60e51b815260040161042c90611368565b600085815260016020526040902060060154610100900460ff16156111885760405162461bcd60e51b815260206004820152603160248201527f43616e2774207769746864726177206e6f772c20726573706f6e64656e74206160448201527063636570746564206368616c6c656e676560781b606482015260840161042c565b600085815260016020819052604080832060068101805462ff00001916620100001790559182015460039092015490516001600160a01b039092169281156108fc029290818181858888f19350505050158015610602573d6000803e3d6000fd5b6040805160ff8416602082015290810182905260009060600160405160208183030381529060405280519060200120905092915050565b803560ff8116811461123157600080fd5b919050565b60006020828403121561124857600080fd5b5035919050565b60008060006060848603121561126457600080fd5b8335925060208401356001600160a01b038116811461128257600080fd5b929592945050506040919091013590565b600080604083850312156112a657600080fd5b50508035926020909101359150565b600080604083850312156112c857600080fd5b823591506112d860208401611220565b90509250929050565b600080604083850312156112f457600080fd5b6112fd83611220565b946020939093013593505050565b82815260006020604081840152835180604085015260005b8181101561133f57858101830151858201606001528201611323565b81811115611351576000606083870101525b50601f01601f191692909201606001949350505050565b60208082526027908201527f596f7520617265206e6f7420746865206368616c6c616e676572206f6620746860408201526669732067616d6560c81b606082015260800190565b60208082526033908201527f47616d6520646f65736e2774206578697374206f7220746869732067616d652060408201527269736e2774206d65616e7420666f7220796f7560681b606082015260800190565b602080825260139082015272496e76616c69642067616d652073746174757360681b604082015260600190565b6020808252600f908201526e4e6f742061207265616c2067616d6560881b604082015260600190565b60008160001904831182151516156114725761147261148e565b500290565b6000828210156114895761148961148e565b500390565b634e487b7160e01b600052601160045260246000fdfea26469706673582212200b973dcf5925cc87d80016b5b82440cf536d41853fb2abc5530f0725fa98fbe064736f6c63430008060033",
    "sourcePath": "c:/Ram/Programming/rock_paper_scissors/contracts/RPS.sol",
    "compiler": {
        "name": "solc",
        "version": "0.8.6+commit.11564f7e"
    },
    "functionHashes": {
        "accept(bytes32,uint8)": "6adf65dc",
        "challenge(bytes32,address,uint256)": "43e7b149",
        "decodeHash(bytes32,bytes32)": "1b856f4c",
        "getGameData1(bytes32)": "c37ca54e",
        "getGameData2(bytes32)": "8e1a4126",
        "hashMethod(uint8,bytes32)": "da310ba1",
        "paper()": "f8c587ac",
        "rock()": "6da6bad0",
        "scissors()": "1f2a3e06",
        "settleGame(bytes32,bytes32)": "5f80b787",
        "withdrawAsChallenger(bytes32)": "9aabe581",
        "withdrawAsRespondent(bytes32)": "29ce9860"
    },
    "gasEstimates": {
        "creation": {
            "codeDepositCost": "1067600",
            "executionCost": "25331",
            "totalCost": "1092931"
        },
        "external": {
            "accept(bytes32,uint8)": "63256",
            "challenge(bytes32,address,uint256)": "149328",
            "decodeHash(bytes32,bytes32)": "infinite",
            "getGameData1(bytes32)": "8984",
            "getGameData2(bytes32)": "6903",
            "hashMethod(uint8,bytes32)": "633",
            "paper()": "2434",
            "rock()": "2313",
            "scissors()": "2347",
            "settleGame(bytes32,bytes32)": "infinite",
            "withdrawAsChallenger(bytes32)": "infinite",
            "withdrawAsRespondent(bytes32)": "infinite"
        }
    }
}