{
    "contractName": "RockPaperScissors",
    "abi": [
        {
            "anonymous": false,
            "inputs": [
                {
                    "indexed": false,
                    "internalType": "bytes32",
                    "name": "gameId",
                    "type": "bytes32"
                }
            ],
            "name": "GameAccepted",
            "type": "event"
        },
        {
            "anonymous": false,
            "inputs": [
                {
                    "indexed": false,
                    "internalType": "bytes32",
                    "name": "gameId",
                    "type": "bytes32"
                }
            ],
            "name": "GameCancelled",
            "type": "event"
        },
        {
            "anonymous": false,
            "inputs": [
                {
                    "indexed": false,
                    "internalType": "bytes32",
                    "name": "gameId",
                    "type": "bytes32"
                },
                {
                    "indexed": true,
                    "internalType": "address",
                    "name": "challenger",
                    "type": "address"
                },
                {
                    "indexed": true,
                    "internalType": "address",
                    "name": "respondent",
                    "type": "address"
                }
            ],
            "name": "GameCreated",
            "type": "event"
        },
        {
            "anonymous": false,
            "inputs": [
                {
                    "indexed": false,
                    "internalType": "bytes32",
                    "name": "gameId",
                    "type": "bytes32"
                },
                {
                    "indexed": false,
                    "internalType": "string",
                    "name": "result",
                    "type": "string"
                }
            ],
            "name": "GameEnded",
            "type": "event"
        },
        {
            "inputs": [
                {
                    "internalType": "bytes32",
                    "name": "_gameId",
                    "type": "bytes32"
                },
                {
                    "internalType": "uint8",
                    "name": "_choice",
                    "type": "uint8"
                }
            ],
            "name": "accept",
            "outputs": [],
            "stateMutability": "payable",
            "type": "function"
        },
        {
            "inputs": [
                {
                    "internalType": "bytes32",
                    "name": "_slatedHash",
                    "type": "bytes32"
                },
                {
                    "internalType": "address",
                    "name": "_respondent",
                    "type": "address"
                },
                {
                    "internalType": "uint256",
                    "name": "_blockduration",
                    "type": "uint256"
                }
            ],
            "name": "challenge",
            "outputs": [],
            "stateMutability": "payable",
            "type": "function"
        },
        {
            "inputs": [
                {
                    "internalType": "bytes32",
                    "name": "_saltedHash",
                    "type": "bytes32"
                },
                {
                    "internalType": "bytes32",
                    "name": "_salt",
                    "type": "bytes32"
                }
            ],
            "name": "decodeHash",
            "outputs": [
                {
                    "internalType": "uint8",
                    "name": "",
                    "type": "uint8"
                },
                {
                    "internalType": "bool",
                    "name": "",
                    "type": "bool"
                }
            ],
            "stateMutability": "view",
            "type": "function"
        },
        {
            "inputs": [
                {
                    "internalType": "bytes32",
                    "name": "_gameId",
                    "type": "bytes32"
                }
            ],
            "name": "getGameData1",
            "outputs": [
                {
                    "internalType": "bytes32",
                    "name": "_saltedHash",
                    "type": "bytes32"
                },
                {
                    "internalType": "address",
                    "name": "_challenger",
                    "type": "address"
                },
                {
                    "internalType": "address",
                    "name": "_respondent",
                    "type": "address"
                },
                {
                    "internalType": "uint256",
                    "name": "_stake",
                    "type": "uint256"
                }
            ],
            "stateMutability": "view",
            "type": "function"
        },
        {
            "inputs": [
                {
                    "internalType": "bytes32",
                    "name": "_gameId",
                    "type": "bytes32"
                }
            ],
            "name": "getGameData2",
            "outputs": [
                {
                    "internalType": "uint256",
                    "name": "_blocknumber",
                    "type": "uint256"
                },
                {
                    "internalType": "uint256",
                    "name": "_blockduration",
                    "type": "uint256"
                },
                {
                    "internalType": "uint8",
                    "name": "_respondentChoice",
                    "type": "uint8"
                },
                {
                    "internalType": "bool",
                    "name": "_hasStarted",
                    "type": "bool"
                },
                {
                    "internalType": "bool",
                    "name": "_isFinished",
                    "type": "bool"
                },
                {
                    "internalType": "bool",
                    "name": "_isGame",
                    "type": "bool"
                }
            ],
            "stateMutability": "view",
            "type": "function"
        },
        {
            "inputs": [
                {
                    "internalType": "uint8",
                    "name": "_choice",
                    "type": "uint8"
                },
                {
                    "internalType": "bytes32",
                    "name": "_salt",
                    "type": "bytes32"
                }
            ],
            "name": "hashMethod",
            "outputs": [
                {
                    "internalType": "bytes32",
                    "name": "",
                    "type": "bytes32"
                }
            ],
            "stateMutability": "pure",
            "type": "function"
        },
        {
            "inputs": [],
            "name": "paper",
            "outputs": [
                {
                    "internalType": "uint8",
                    "name": "",
                    "type": "uint8"
                }
            ],
            "stateMutability": "view",
            "type": "function"
        },
        {
            "inputs": [],
            "name": "rock",
            "outputs": [
                {
                    "internalType": "uint8",
                    "name": "",
                    "type": "uint8"
                }
            ],
            "stateMutability": "view",
            "type": "function"
        },
        {
            "inputs": [],
            "name": "scissors",
            "outputs": [
                {
                    "internalType": "uint8",
                    "name": "",
                    "type": "uint8"
                }
            ],
            "stateMutability": "view",
            "type": "function"
        },
        {
            "inputs": [
                {
                    "internalType": "bytes32",
                    "name": "_gameId",
                    "type": "bytes32"
                },
                {
                    "internalType": "bytes32",
                    "name": "_salt",
                    "type": "bytes32"
                }
            ],
            "name": "settleGame",
            "outputs": [],
            "stateMutability": "nonpayable",
            "type": "function"
        },
        {
            "inputs": [
                {
                    "internalType": "bytes32",
                    "name": "_gameId",
                    "type": "bytes32"
                }
            ],
            "name": "withdrawAsChallenger",
            "outputs": [],
            "stateMutability": "nonpayable",
            "type": "function"
        },
        {
            "inputs": [
                {
                    "internalType": "bytes32",
                    "name": "_gameId",
                    "type": "bytes32"
                }
            ],
            "name": "withdrawAsRespondent",
            "outputs": [],
            "stateMutability": "nonpayable",
            "type": "function"
        }
    ],
    "bytecode": "60806040526000805461010061ffff199091161762ff000019166202000017905534801561002c57600080fd5b506116118061003c6000396000f3fe6080604052600436106100a75760003560e01c80636da6bad0116100645780636da6bad01461016d5780638e1a4126146101825780639aabe581146101b4578063c37ca54e146101d4578063da310ba114610204578063f8c587ac14610231576100a7565b80631b856f4c146100ac5780631f2a3e06146100e357806329ce98601461010557806343e7b149146101275780635f80b7871461013a5780636adf65dc1461015a575b600080fd5b3480156100b857600080fd5b506100cc6100c7366004611016565b610246565b6040516100da929190611567565b60405180910390f35b3480156100ef57600080fd5b506100f861030b565b6040516100da9190611559565b34801561011157600080fd5b50610125610120366004610fbc565b61031a565b005b610125610135366004610fd4565b610505565b34801561014657600080fd5b50610125610155366004611016565b61072b565b610125610168366004611037565b610ba1565b34801561017957600080fd5b506100f8610d90565b34801561018e57600080fd5b506101a261019d366004610fbc565b610d99565b6040516100da96959493929190611528565b3480156101c057600080fd5b506101256101cf366004610fbc565b610dde565b3480156101e057600080fd5b506101f46101ef366004610fbc565b610f2e565b6040516100da94939291906110c5565b34801561021057600080fd5b5061022461021f366004611062565b610f65565b6040516100da91906110bc565b34801561023d57600080fd5b506100f8610f98565b600080548190819061025b9060ff1685610f65565b90506000610278600060019054906101000a900460ff1686610f65565b90506000610295600060029054906101000a900460ff1687610f65565b9050828714156102b457505060005460ff169250600191506103049050565b818714156102d6575050600054610100900460ff169250600191506103049050565b808714156102f957505060005462010000900460ff169250600191506103049050565b600080945094505050505b9250929050565b60005462010000900460ff1681565b6000818152600160208190526040909120600601548291630100000090910460ff161515146103645760405162461bcd60e51b815260040161035b9061144f565b60405180910390fd5b60008281526001602052604081206006015483919062010000900460ff161561039f5760405162461bcd60e51b815260040161035b90611364565b60008481526001602052604090206002015484906001600160a01b031633146103da5760405162461bcd60e51b815260040161035b90611258565b600085815260016020819052604090912060060154610100900460ff161515146104165760405162461bcd60e51b815260040161035b906114f1565b6000858152600160205260409020600581015460049091015461043990436115ae565b10156104575760405162461bcd60e51b815260040161035b906112e0565b600085815260016020526040902060068101805462ff00001916620100001790556002808201546003909201546001600160a01b03909216916108fc9161049e919061158f565b6040518115909202916000818181858888f193505050501580156104c6573d6000803e3d6000fd5b507f730d9f4e127b4c1c5d999194f79025fe149736fbb95b0755b18ed20ddd01b4e0856040516104f691906110bc565b60405180910390a15050505050565b346105225760405162461bcd60e51b815260040161035b906112ab565b336001600160a01b038316141561054b5760405162461bcd60e51b815260040161035b90611391565b6001600160a01b0382166105715760405162461bcd60e51b815260040161035b906113c8565b8061058e5760405162461bcd60e51b815260040161035b90611221565b60408051610140810182528481523360208083018290526001600160a01b038616838501819052346060850181905260006080860181905260a08601889052805460ff1660c087015260e086018190526101008601819052600161012087015295519495946106029493869189910161108b565b60408051808303601f1901815282825280516020918201206000818152600180845290849020875181559287015190830180546001600160a01b03199081166001600160a01b03938416179091559387015160028401805490951690821617909355606086015160038301556080860151600483015560a0860151600583015560c08601516006909201805460e0880151610100808a01516101208b015160ff1990941660ff9097169690961761ff001916911515021762ff0000191662010000941515949094029390931763ff000000191663010000009315159390930292909217909155925085169033907f34e2d83306a98aff5e4796375e70ce8ec62d7ef614bb17d77397761d06b93e569061071c9085906110bc565b60405180910390a35050505050565b6000828152600160208190526040909120600601548391630100000090910460ff1615151461076c5760405162461bcd60e51b815260040161035b9061144f565b60008381526001602052604081206006015484919062010000900460ff16156107a75760405162461bcd60e51b815260040161035b90611364565b6000858152600160208190526040909120015485906001600160a01b031633146107e35760405162461bcd60e51b815260040161035b906111a3565b600086815260016020819052604090912060060154610100900460ff1615151461081f5760405162461bcd60e51b815260040161035b906111ea565b600086815260016020818152604080842060068101548251808401909352600e83526d21b430b63632b733b2b9103bb7b760911b838501528b865293909252905460ff9092169291829190610874908a610246565b909350915060018215151461089b5760405162461bcd60e51b815260040161035b90611145565b8360ff168360ff1614156109685760008a815260016020526040808220600281015460039091015491516001600160a01b039091169282156108fc02929190818181858888f193505050501580156108f7573d6000803e3d6000fd5b5060008a81526001602081905260408083209182015460039092015490516001600160a01b039092169281156108fc029290818181858888f19350505050158015610946573d6000803e3d6000fd5b50506040805180820190915260048152634472617760e01b6020820152610b3b565b60005460ff848116911614801561098c575060005460ff8581166201000090920416145b156109f55760008a8152600160208190526040909120908101546003909101546001600160a01b03909116906108fc906109c790600261158f565b6040518115909202916000818181858888f193505050501580156109ef573d6000803e3d6000fd5b50610b3b565b60005460ff84811661010090920416148015610a18575060005460ff8581169116145b15610a535760008a8152600160208190526040909120908101546003909101546001600160a01b03909116906108fc906109c790600261158f565b60005460ff8481166201000090920416148015610a7c575060005460ff85811661010090920416145b15610ab75760008a8152600160208190526040909120908101546003909101546001600160a01b03909116906108fc906109c790600261158f565b60008a81526001602052604090206002808201546003909201546001600160a01b03909216916108fc91610aeb919061158f565b6040518115909202916000818181858888f19350505050158015610b13573d6000803e3d6000fd5b505060408051808201909152600e81526d3932b9b837b73232b73a103bb7b760911b60208201525b60008a81526001602052604090819020600601805462ff0000191662010000179055517f06962381933c9781842e2452d04a5821726a67c9fe96b977f2272e00165ec5ee90610b8d908c9084906110ea565b60405180910390a150505050505050505050565b6000828152600160208190526040909120600601548391630100000090910460ff16151514610be25760405162461bcd60e51b815260040161035b9061144f565b60008381526001602052604081206006015484919062010000900460ff1615610c1d5760405162461bcd60e51b815260040161035b90611364565b60008581526001602052604090206002015485906001600160a01b03163314610c585760405162461bcd60e51b815260040161035b90611258565b600054859060ff808316911614801590610c7f575060005460ff8281166101009092041614155b8015610c99575060005460ff828116620100009092041614155b15610cb65760405162461bcd60e51b815260040161035b90611478565b600087815260016020526040902060030154341015610ce75760405162461bcd60e51b815260040161035b906113fd565b600087815260016020526040902060060154610100900460ff1615610d1e5760405162461bcd60e51b815260040161035b90611322565b6000878152600160205260409081902060068101805461010060ff1990911660ff8b161761ff00191617905543600490910155517fd5dee84148a1bc6f632dea99c242439c630eeb2b8de3ee9f77841350632b770d90610d7f9089906110bc565b60405180910390a150505050505050565b60005460ff1681565b600090815260016020526040902060048101546005820154600690920154909260ff808316926101008104821692620100008204831692630100000090920490911690565b6000818152600160208190526040909120600601548291630100000090910460ff16151514610e1f5760405162461bcd60e51b815260040161035b9061144f565b60008281526001602052604081206006015483919062010000900460ff1615610e5a5760405162461bcd60e51b815260040161035b90611364565b6000848152600160208190526040909120015484906001600160a01b03163314610e965760405162461bcd60e51b815260040161035b906111a3565b600085815260016020526040902060060154610100900460ff1615610ecd5760405162461bcd60e51b815260040161035b906114a0565b600085815260016020819052604080832060068101805462ff00001916620100001790559182015460039092015490516001600160a01b039092169281156108fc029290818181858888f193505050501580156104c6573d6000803e3d6000fd5b6000908152600160208190526040909120805491810154600282015460039092015492936001600160a01b03918216939190921691565b60008282604051602001610f7a92919061157c565b60405160208183030381529060405280519060200120905092915050565b600054610100900460ff1681565b803560ff81168114610fb757600080fd5b919050565b600060208284031215610fcd578081fd5b5035919050565b600080600060608486031215610fe8578182fd5b8335925060208401356001600160a01b0381168114611005578283fd5b929592945050506040919091013590565b60008060408385031215611028578182fd5b50508035926020909101359150565b60008060408385031215611049578182fd5b8235915061105960208401610fa6565b90509250929050565b60008060408385031215611074578182fd5b61107d83610fa6565b946020939093013593505050565b6001600160a01b03958616815293909416602084015260408301919091526060820152608081019190915260a00190565b90815260200190565b9384526001600160a01b03928316602085015291166040830152606082015260800190565b600083825260206040818401528351806040850152825b8181101561111d57858101830151858201606001528201611101565b8181111561112e5783606083870101525b50601f01601f191692909201606001949350505050565b602080825260409082018190527f536f6d657468696e672077656e742077726f6e67206465636f64696e6720796f908201527f75722073616c74656420686173682c20636865636b20796f757220696e707574606082015260800190565b60208082526027908201527f596f7520617265206e6f7420746865206368616c6c616e676572206f6620746860408201526669732067616d6560c81b606082015260800190565b6020808252601e908201527f526573706f6e64656e74206861736e2774206163636570746564207965740000604082015260600190565b6020808252601f908201527f43616e277420686176652067616d6520776974682030206475726174696f6e00604082015260600190565b60208082526033908201527f47616d6520646f65736e2774206578697374206f7220746869732067616d652060408201527269736e2774206d65616e7420666f7220796f7560681b606082015260800190565b6020808252818101527f4d7573742070726f76696465207374616b6520666f72206368616c6c656e6765604082015260600190565b60208082526022908201527f4368616c6c616e676572207374696c6c206d61792070726f766964652070726f60408201526137b360f11b606082015260800190565b60208082526022908201527f596f75206861766520616c7265616479206163636570746564207468652067616040820152616d6560f01b606082015260800190565b602080825260139082015272496e76616c69642067616d652073746174757360681b604082015260600190565b60208082526018908201527f43616e2774206368616c6c656e676520796f757273656c660000000000000000604082015260600190565b6020808252818101527f526573706f6e64656e742063616e2774206265206275726e2061646472657373604082015260600190565b60208082526032908201527f4d7573742070726f76696465207374616b6520657175616c206f72206869676860408201527132b9103a3430b71031b430b63632b733b2b960711b606082015260800190565b6020808252600f908201526e4e6f742061207265616c2067616d6560881b604082015260600190565b6020808252600e908201526d496e76616c69642063686f69636560901b604082015260600190565b60208082526031908201527f43616e2774207769746864726177206e6f772c20726573706f6e64656e74206160408201527063636570746564206368616c6c656e676560781b606082015260800190565b6020808252601e908201527f596f7520686176656e277420616363657074656420746861742067616d650000604082015260600190565b958652602086019490945260ff9290921660408501521515606084015215156080830152151560a082015260c00190565b60ff91909116815260200190565b60ff9290921682521515602082015260400190565b60ff929092168252602082015260400190565b60008160001904831182151516156115a9576115a96115c5565b500290565b6000828210156115c0576115c06115c5565b500390565b634e487b7160e01b600052601160045260246000fdfea2646970667358221220d2e19ca23fb9e1efaa81521900576a862f3257719bb31a77bf944d7f99688d4164736f6c63430008000033",
    "sourcePath": "d:/RamNew2020/Ethereum/RPSsolidity/contracts/RPS.sol",
    "compiler": {
        "name": "solc",
        "version": "0.8.0+commit.c7dfd78e"
    },
    "functionHashes": {
        "accept(bytes32,uint8)": "6adf65dc",
        "challenge(bytes32,address,uint256)": "43e7b149",
        "decodeHash(bytes32,bytes32)": "1b856f4c",
        "getGameData1(bytes32)": "c37ca54e",
        "getGameData2(bytes32)": "8e1a4126",
        "hashMethod(uint8,bytes32)": "da310ba1",
        "paper()": "f8c587ac",
        "rock()": "6da6bad0",
        "scissors()": "1f2a3e06",
        "settleGame(bytes32,bytes32)": "5f80b787",
        "withdrawAsChallenger(bytes32)": "9aabe581",
        "withdrawAsRespondent(bytes32)": "29ce9860"
    },
    "gasEstimates": {
        "creation": {
            "codeDepositCost": "1129800",
            "executionCost": "22019",
            "totalCost": "1151819"
        },
        "external": {
            "accept(bytes32,uint8)": "49598",
            "challenge(bytes32,address,uint256)": "131621",
            "decodeHash(bytes32,bytes32)": "infinite",
            "getGameData1(bytes32)": "3808",
            "getGameData2(bytes32)": "3039",
            "hashMethod(uint8,bytes32)": "690",
            "paper()": "1167",
            "rock()": "1046",
            "scissors()": "1080",
            "settleGame(bytes32,bytes32)": "infinite",
            "withdrawAsChallenger(bytes32)": "infinite",
            "withdrawAsRespondent(bytes32)": "infinite"
        }
    }
}